:020000040800F2
:10000000C8580020E1010008951E0008971E00084E
:10001000991E00089B1E00089D1E0008000000009D
:10002000000000000000000000000000490100087E
:100030009F1E0008000000008D010008A11E00089E
:10004000FB010008FB010008FB010008FB010008A0
:10005000FB010008FB010008FB010008FB01000890
:10006000FB010008FB010008FB010008FB01000880
:10007000FB010008FB010008FB010008FB01000870
:10008000FB010008FB010008FB010008FB01000860
:10009000FB010008FB010008FB010008B51E000879
:1000A000FB010008FB010008FB010008FB01000840
:1000B000194000082F3D0008F33F0008FB0100082D
:1000C000FB010008FB010008FB010008FB01000820
:1000D000FB0100082B1F0008FB010008D11E0008CF
:1000E000FB010008FB010008FB010008FB01000800
:1000F000FB010008FB010008FB010008FB010008F0
:10010000FB010008FB010008FB010008FB010008DF
:10011000FB010008FB010008FB010008FB010008CF
:10012000FB010008FB010008FB010008FB010008BF
:10013000DFF810D006F0FCFF00480047871C0008DD
:10014000AFF30080C8580020224B19680868B0E857
:10015000F00F80F30988BFF36F8F4FF0000080F33A
:1001600011884EF00D0E7047000000000648006830
:10017000006880F3088862B661B6BFF34F8FBFF3A3
:100180006F8F00DF00BF00BF08ED00E0EFF30980D4
:10019000BFF36F8F0F4B1A6820E9F00F106008B59E
:1001A0004FF0400080F31188BFF34F8FBFF36F8F84
:1001B00005F0BFFC4FF0000080F31188BDE8084057
:1001C00019680868B0E8F00F80F30988BFF36F8FF3
:1001D000704700BF7C000020EFF3058070470000EF
:1001E0000648804706480047FEE7FEE7FEE7FEE7D1
:1001F000FEE7FEE7FEE7FEE7FEE7FEE7A5020008F2
:10020000310100080CB500224C48009201920168AF
:1002100041F4803101604FF4A063016801F40031C2
:1002200001910099491C0091019911B900999942D5
:10023000F3D10168890333D50121019140490A684E
:1002400042F010020A600A6822F003020A600A689B
:1002500042F002020A6041684160416841604168C1
:1002600041F480614160416821F47C114160416842
:1002700041F4E8114160016841F08071016001685A
:100280008901FCD5416821F003014160416841F0DA
:10029000020141604168C1F381010229FAD10CBD1C
:1002A00001920CBD254810B5016841F001010160C3
:1002B0004168244A114041600168234A11400160AD
:1002C000016821F480210160416821F4FE01416050
:1002D0004FF41F018160FFF795FF1C494FF000604C
:1002E000086010BD154A10B55068194B10F00C018C
:1002F000184803D0042901D0082901D0036012E076
:100300005168536801F470114FF0020413F4803FF8
:1003100004EB914102D053689B0301D50E4B00E0E2
:100320000B4B5943016051680A4AC1F30311121D76
:10033000515C0268CA40026010BD0000001002401B
:10034000002002400000FFF8FFFFF6FE08ED00E08D
:1003500000127A000000002000093D0028490843EF
:1003600028490860704730B50F23C278017801250D
:10037000F2B1244A126801F1E02102F4E062C2F510
:10038000E062120AC2F10404D3404278A2408478A9
:100390001C401443220181F80024007800F01F0162
:1003A0008D404009800000F1E020C0F8005130BDD0
:1003B00001F01F0085404809800000F1E020C0F8EE
:1003C000805130BD104A114001430E48001F0160AA
:1003D00070470C4A121D0029116801D0014300E04A
:1003E0008143116070474FF0E0210428086903D071
:1003F00020F004000861704740F00400FAE70000B4
:100400000000FA050CED00E080FFFF1F37490020D7
:100410000860091D0860091D0860091D086033494E
:10042000334814310860704730B5304A8379016829
:1004300053B313688B431360111D0B680468A34307
:100440000B60017911440B68046823430B60274B50
:10045000083319680468A14319601C1D21680568E8
:10046000A94321604179102905D011440A68006828
:1004700002430A6030BD196802681143196021689F
:1004800000680143216030BD0079104402688A434E
:10049000026030BD0021016001710C224271817146
:1004A0007047124910310A6802430A6070470146DA
:1004B0000E4A0020143212680A4200D00120704710
:1004C0000A49143108607047084A01460020126842
:1004D000064B0A4014331B680B4202D0002A00D09E
:1004E0000120704701491431086070470004014041
:1004F000FFFF0F008F4910B5884206D1012104206B
:1005000000F049FA002104203BE08B49884206D1E3
:100510000121082000F03FFA0021082031E087493E
:10052000884206D10121102000F035FA0021102068
:1005300027E08349884206D10121202000F02BFAD0
:10054000002120201DE07F49884206D10121402062
:1005500000F021FA0021402013E07B49884206D1B7
:100560000121802000F017FA0021802009E077495E
:1005700088420AD184150121204600F00CFA00219E
:100580002046BDE8104000F006BA10BD10B50121AC
:10059000084600F000FA0021BDE81040012000F0FC
:1005A000FAB9F0B5CC78002204F00F03E40601D5C7
:1005B0008C7823430C784FF00F0C14F0FF0F4FF0A2
:1005C000010E1BD005680E880EFA02F42640A642E2
:1005D00010D196000CFA06F725EA070703FA06F58C
:1005E000CE783D43282E02D0482E02D002E044614E
:1005F00000E00461521C082AE5D305600A88FF2A3E
:100600001CD94468002202F108060EFA06F50E888D
:100610002E40AE420ED196000CFA06F7BC4303FA08
:1006200006F7CE783C43282E00D14561CE78482E7F
:1006300000D10561521C082AE5D34460F0BD4FF695
:10064000FF710180022181700421C1707047024650
:10065000002092680A4200D001207047806880B272
:10066000704702460020D2680A4200D0012070473D
:10067000C06880B2704701617047416170470AB13C
:100680000161704741617047C160704741F4803239
:100690008261816182618169806970472C4B10B5EC
:1006A0001A684FF68074224042EA0010084318602E
:1006B00010BD2849C8617047F0B5254C002801DA03
:1006C000E36900E06368450D2E0185B2C0F3015770
:1006D000B540C0F30342032F05D0C6020AD5032656
:1006E0009640B34307E023F07062636823F07063C1
:1006F000636002E0AB4343F0706201B12A4300281B
:1007000001DAE261F0BD6260F0BD10B58A0721F048
:1007100003040F49120F21440F238C6893409C431C
:100720008C608B68904003438B6010BD0949C1F811
:10073000DC00704700080140000C0140001001403F
:100740000014014000180140001C0140002001403D
:100750000000014000002042A548016841F001016D
:1007600001604168A34A114041600168A24A1140FA
:100770000160016821F480210160416821F4FE01DB
:1007800041604FF41F018160704799490A6822F463
:1007900080320A600A6822F480220A60B0F5803F45
:1007A00007D0B0F5802F03D1086840F4A02008607E
:1007B0007047086840F48030F9E703460020590983
:1007C0008B4A01290AD002290AD0516A03F01F027C
:1007D000012393400B4200D0012070471168F5E7D8
:1007E000116AF3E718B500204FF4A064009031209F
:1007F000FFF7E3FF0099491C0091A14201D00028B6
:10080000F5D03120FFF7D9FF002800D0012018BD16
:10081000774A116821F0F80141EAC0001060704782
:10082000764908607047724B5A68084322F47C127C
:100830001043586070477149086670476C4A5168A8
:1008400021F003010143516070476948406800F09E
:100850000C007047664A516821F0F0010143516075
:100860007047634A516821F4E06101435160704769
:100870005F4A516821F4605141EAC00050607047FE
:100880005B4A0029517A01D0014300E08143517253
:1008900070475A49C1F8D8007047554A516821F449
:1008A00040410143516070475149002281F82020A6
:1008B00081F82020012802D0042802D1052081F8E7
:1008C000200070474E490860704749490A6A024350
:1008D0000A6270474A4944390860704730B5444A53
:1008E0005168484B11F00C0103D0042901D00829AC
:1008F00001D0036012E05168536801F470114FF0A9
:10090000020413F4803F04EB914102D053689B032F
:1009100001D53D4B00E03B4B5943016051680F232B
:1009200003EA1111394B5C5C0168E1404160546895
:10093000072505EA14241C5D21FA04F48460546838
:1009400005EAD4241B5DD940C1605268032303EA41
:1009500092322E4B1B1F9A5CB1FBF2F1016130BD4C
:10096000234A0029516901D0014300E081435161CC
:1009700070471F4A0029916901D0014300E081437B
:10098000916170471A4A0029D16901D0014300E002
:100990008143D1617047164A0029D16801D00143D3
:1009A00000E08143D1607047114A0029116901D0EC
:1009B000014300E0814311617047114940390860EB
:1009C00070470E49C86470470949C87170470848A4
:1009D000416A41F0807141627047054A014600203A
:1009E00092680A4200D0012070470149887270471E
:1009F000001002400000FFF8FFFFF6FE0000424238
:100A00008004424200127A0000093D0018000020D4
:100A1000994910B588420AD1841401212046FFF774
:100A2000BAFF2046BDE810400021FFF7B4BF93494C
:100A3000884202D10121041404E0914988420AD17C
:100A40000121C4132046FFF7AFFF2046BDE8104048
:100A50000021FFF7A9BF10BD30B502884C8802F411
:100A600041530A88CD8822438C882C4322430C8929
:100A700022434C8922438C892243CC8922431A4346
:100A80000280828B22F400628283098A018230BD57
:100A9000F0B505460C4602200021AA8B85B0012640
:100AA0004FF240031A40AA832884AF8BA268022A1F
:100AB00021D0A08800B102266846FFF70FFFE18829
:100AC0000098B1F5007F2CD07101B0FBF1F000EB84
:100AD0008000A1684000B0FBF1F0401D80B20A2107
:100AE000B0FBF1F000F00101401A4FF6FF72C0F3C5
:100AF0004F0002EA0121821EFE2A01D302200021BA
:100B0000E288084302432A8420886188A289084336
:100B1000A18811430843384340F40060A88305B01E
:100B2000F0BD000AD3E70021018041808180C180AF
:100B3000018141818181C1810721018270470021AA
:100B4000018041808180C180022282608181704762
:100B50000029018802D041F0400101E021F040016C
:100B6000018070470029818B02D041F4806101E04F
:100B700021F4806181837047090901238B40002A99
:100B8000828899B201D00A4300E08A43828070478C
:100B9000002A828801D00A4300E08A43828070479D
:100BA0008181704780897047A1F57E420188FF3AB4
:100BB00002D041F4807101E021F48071018070471E
:100BC0000029818802D041F0040101E021F00401F4
:100BD00081807047028822F40062028002880A4302
:100BE00002807047018841F48051018070470029DC
:100BF000018802D041F4005101E021F4005101804C
:100C00007047012901D0008B7047808A7047008AA5
:100C10007047B1F5804F018803D021F480410180F5
:100C2000704741F48041FAE70246002012890A42E7
:100C300000D001207047C9430181704730B501F0F1
:100C40000F030125024605FA03F40020A3B20909A7
:100C500005FA01F49188A4B2128921401A4202D007
:100C6000002900D0012030BD01F00F020121914088
:100C7000C943018170470000003001400038004046
:100C8000003C0040F94910B5884202D10121C4144A
:100C900086E0B0F1804F09D0F54988420DD101219D
:100CA0000220FFF781FE0021022064E001210846B6
:100CB000FFF77AFE002101205DE0EE49884206D16F
:100CC00001210420FFF770FE0021042053E0EA49CF
:100CD000884206D101210820FFF766FE0021082086
:100CE00049E0E649884206D101211020FFF75CFE69
:100CF000002110203FE0E249884206D10121202056
:100D0000FFF752FE0021202035E0DE49884202D163
:100D10000121441444E0DC49884202D10121CC0481
:100D20003EE0DA49884202D101210C0538E0D84979
:100D3000884202D101214C0532E0D649884206D1D1
:100D400001214020FFF730FE0021402013E0D2496E
:100D5000884206D101218020FFF726FE0021802055
:100D600009E0CE4988420AD1841501212046FFF7C7
:100D70001BFE00212046BDE81040FFF715BEC84904
:100D8000884202D101210C040AE0C649884202D1FE
:100D900001214C0404E0C44988420AD101218C0499
:100DA0002046FFF7F8FD2046BDE810400021FFF780
:100DB000F2BD10BD30B50288AC4CB24DA0420DD092
:100DC000A8420BD0B0F1804F08D0A94B984205D073
:100DD000A84B984202D0A84B984203D122F070034E
:100DE0004A881A43A54B984206D0A54B984203D097
:100DF00022F44073CA881A4302808A8882850A884E
:100E00000285A0420AD0A84208D0A54A904205D047
:100E1000A44A904202D0A44A904201D1097A0186A4
:100E20000121818230BD30B5028C22F001020284A2
:100E3000028C8388048B22F0020224F073050C8854
:100E40002C430D8915434A882A43884DA8420BD06C
:100E50008C4DA84208D0924DA84205D0914DA84291
:100E600002D0914DA8420DD122F008054A8923F401
:100E700040732A4322F004058A882A438D891D4342
:100E8000CB892B4383800483C9888186028430BD4B
:100E900070B5028C22F010020284028C8388048BCD
:100EA0000D8824F4E6464FF6FF7404EA0525354321
:100EB0000E8922F0200204EA061616434A8804EA44
:100EC00002123243694EB04202D06E4EB04215D18A
:100ED00022F080064A8923F4406304EA0212324376
:100EE00022F040068A8804EA021232438E8904EA1C
:100EF00086061E43CB8904EA83033343838005833C
:100F0000C9880187028470BD70B5028C22F480729A
:100F10000284028C8388848B0D8824F0730425431B
:100F20000E894FF6FF7422F4007204EA0626164377
:100F30004A8804EA022232434C4EB04202D0514E5B
:100F4000B04215D122F400664A8923F4405304EAE2
:100F50000222324322F480668A8804EA0222324363
:100F60008E8904EA06161E43CB8904EA0313334331
:100F700083808583C9888187028470BD70B5028CA7
:100F800022F480520284058C8288838B0C8823F49F
:100F9000E6464FF6FF7303EA0424344325F4005673
:100FA0000D8903EA053535434E8803EA06362E439C
:100FB0002E4DA84202D0334DA84205D122F48045DF
:100FC0008A8903EA82122A4382808483C988A0F82E
:100FD0004010068470BD828B22F440628283828B33
:100FE0004FF6FF7303EA01210A4382837047828B25
:100FF00022F00C028283828B0A4382837047028B29
:1010000022F440620283028B4FF6FF7303EA012150
:101010000A4302837047F0B5048C24F01004048462
:10102000078B048C4FF6FF7527F4734705EA0333EB
:101030003B4305EA02221A430C4B05EA011698428B
:101040000ED0104B98420BD0B0F1804F08D0084B17
:10105000984205D0074B984202D0074B984225D1C1
:1010600024F02001314341F0100124E0002C014024
:101070000004004000080040000C00400010004048
:101080000014004000340140004C01400050014079
:101090000054014000180040001C004000200040A7
:1010A00000400140004401400048014024F0A003FA
:1010B0000B4343F0100102830184F0BD028B22F048
:1010C0000C020283028B0A430283704770B5048CC2
:1010D00024F001040484058B048C4FF6FF7606EAA5
:1010E0000313134325F0F305F84A2B4390420ED027
:1010F000F74A90420BD0B0F1804F08D0F54A9042A9
:1011000005D0F54A904202D0F44A904202D124F030
:10111000020201E024F00A020A4342F001010383C3
:10112000018470BD2DE9F84F0D4604460888E74F4D
:10113000DFF89CC3DFF89C83DFF89C934988AA887A
:101140002B894FF0804A48B304282FD04FF6FF7602
:101150000828934632D0208C9E4620F4805020846C
:10116000A38B208C06EA0132009223F4734306EA33
:101170000B221A4306EA0E331343BC420AD06445DD
:1011800008D0544506D0444504D04C4502D0D34A3B
:10119000944242D120F40050009940E02046FFF7ED
:1011A00095FFE9882046BDE8F84F87E72046FFF71E
:1011B00032FFE9882046BDE8F84F20E7208C20F474
:1011C00080702084B4F81CE0208C06EA031306EA41
:1011D00001222EF0F30E43EA0B0343EA0E030092C2
:1011E000BC420AD0644508D0544506D0444504D0DA
:1011F0004C4502D0B94A944203D120F400700099C2
:1012000001E020F42060084340F48070A383208430
:10121000E9882046BDE8F84FE9E620F4024008439B
:1012200040F48050A3832084E9882046BDE8F84F2D
:10123000D1E62DE9F0410C460026498807460125F4
:1012400001B90226A288012A00D10225208823891B
:101250000028384610D0FFF7DEFEE1883846FFF759
:10126000CEFE23892A4631463846FFF72FFFE18814
:101270003846BDE8F04121E7FFF728FFE18838460E
:10128000FFF71CFF23892A4631463846FFF7C3FE85
:10129000E1883846BDE8F041B1E610B50A884B88D0
:1012A000CC881A438B8823431A430B891A434B89F2
:1012B00089891A430A43A0F8442010BD4FF6FF71F4
:1012C000818000210180C18041800172704700212E
:1012D000018041808180C180018141818181C18102
:1012E000704700210180418001228280C1800181FC
:1012F00070470021018041808180C180018141814E
:10130000818170470029018802D041F0010101E08C
:1013100021F0010101807047002930F8441F02D0FC
:1013200041F4004101E0C1F30E0101807047002A41
:10133000828901D00A4300E08A438281704781821A
:1013400070471143A0F848107047002A828901D0E5
:101350000A4300E08A4382817047018921F0070136
:1013600001817047028922F070020A4302817047AE
:1013700000B50346FFF7F6FF188940F00700188113
:1013800000BD70B516460D46602904464FF00102B7
:1013900031460AD0FFF79AFE29462046FFF7E2FFC2
:1013A000208940F00700208170BDFFF734FEF3E78D
:1013B00030B504894FF6FF7505EA03231343E4B201
:1013C0000B432343038130BD10B50446FFF7F0FF04
:1013D000208940F07700208110BD10B50446FFF74A
:1013E000E7FF208940F48040208110BD0185828282
:1013F0007047028822F070020A430280704770B57D
:101400000589048B068C25F007050D434FF6FC413A
:101410000C4040F201110C434FF6FF7101EA031139
:1014200026F022061143314305810483018470BDF7
:10143000028B22F070020A4302837047028B4FF640
:10144000FF7322F4E04203EA012111430183704754
:10145000828B22F070020A4382837047828B4FF6A0
:10146000FF7322F4E04203EA0121114381837047B4
:101470000029018802D041F0800101E021F08001C3
:10148000018070470029818802D041F0040101E009
:1014900021F00401818070470029818802D041F049
:1014A000080101E021F0080181807047002981884E
:1014B00002D041F0010101E021F00101818070477B
:1014C000028B22F008020A4302837047002C01407D
:1014D000003401400004004000080040000C0040BF
:1014E000028B4FF6FF7322F4006203EA01211143DD
:1014F0000183EAE7828B22F008020A438283E4E751
:10150000828B4FF6FF7322F4006203EA012111433C
:101510008183DAE7028B22F004020A430283D4E7D4
:10152000028B4FF6FF7322F4806203EA012111431C
:101530000183CAE7828B22F004020A438283C4E754
:10154000828B4FF6FF7322F4806203EA012111437C
:101550008183BAE7028B22F080020A430283B4E758
:10156000028B4FF6FF73C2F30E0203EA012111430F
:101570000183AAE7828B22F080020A438283A4E7D8
:10158000828B4FF6FF73C2F30E0203EA012111436F
:1015900081839AE7028C22F002020A43028494E7D4
:1015A000028C22F008020A4302848EE7028C4FF676
:1015B000FF7322F0200203EA01111143018484E742
:1015C000028C4FF6FF7322F0800203EA01111143EF
:1015D00001847AE7028C4FF6FF7322F4007203EA6B
:1015E00001211143018470E7028C4FF6FF7322F44E
:1015F000006203EA01211143018466E7028C4FF681
:10160000FF7322F4005203EA0131114301845CE7C5
:1016100010B50123048C8B409C430484038C8A40C6
:101620001343038410BD10B50423048C8B409C43EA
:101630000484038C8A401343038410BD30B5012415
:10164000058C00F118038C40A543058489B1082955
:101650000FD0091FC1F34E001844016821F4E04186
:10166000016001684FF6FF7303EA02221143016033
:1016700030BD03EB5100016821F070010160016889
:10168000F4E70029018802D041F0020101E021F0D5
:101690000201018019E70029018802D041F004010C
:1016A00001E021F0040101800FE70029818802D0C8
:1016B00041F0800101E021F08001818005E702888E
:1016C00022F00802028002880A430280FDE6828836
:1016D00022F07002828082880A438280F5E60289C5
:1016E00022F00702028102890A430281EDE60289A3
:1016F00022F08002028102890A430281E5E68184A8
:10170000E3E68185E1E68186DFE60187DDE6818724
:10171000DBE6A0F84010D8E6028822F4407202808E
:1017200002880A430280D0E6808ECEE6008FCCE6A7
:10173000808FCAE6B0F84000C7E6808CC5E6008D11
:10174000C3E602460020128A0A4200D00120BCE60D
:10175000C9430182B9E602460020138A92890B42EE
:1017600002EA010202D0002A00D00120ADE6C943FE
:101770000182AAE6C44910B588420AD101218C032E
:101780002046FFF708F92046BDE810400021FFF78A
:1017900002B9BE49884202D101214C0410E0BC4983
:1017A000884202D101218C040AE0BA49884202D160
:1017B0000121CC0404E0B84988420AD101210C057A
:1017C0002046FFF7F1F82046BDE810400021FFF762
:1017D000EBB810BD30B50446008A85B00D464CF616
:1017E000FF710840E98801432182A0894EF6F31178
:1017F0000840A9882A8911436A8902431143A181BB
:10180000A08A4FF6FF410840A9890143A18268469A
:10181000FFF764F89C48844201D1039800E00298E5
:10182000A189090400EBC00101EB0010296801D572
:10183000490000E08900B0FBF1F06422B0FBF2F156
:1018400009010B096FF018056B4300EB8300A389B6
:101850001D044FF0320306D503EBC000B0FBF2F0DD
:1018600000F0070005E003EB0010B0FBF2F000F021
:101870000F000843208105B030BD4FF416510160C0
:1018800000218180C18001810C22428181817047C9
:1018900010B5028A4FF2FF031A400B884C8823438D
:1018A0008C88C9880C4323431343038210BD002155
:1018B000018041808180C18070470029818902D0E8
:1018C00041F4005101E021F400518181704710B5CD
:1018D000C1F3421301F01F040121A140012B07D0E5
:1018E000022B07D01430002A026805D00A4304E016
:1018F0000C30F8E71030F6E78A43026010BD002A8A
:10190000828A01D00A4300E08A4382827047028AB9
:1019100022F00F020282028A0A4302827047828901
:1019200022F40062828182890A4382817047002901
:10193000818902D041F0020101E021F002018181A0
:101940007047028A22F020020282028A0A4302823F
:1019500070470029018A02D041F4804101E021F45E
:10196000804101827047C1F30801818070478088FF
:10197000C0F308007047818941F0010181817047FF
:10198000028BD2B20283028B42EA012101837047AB
:10199000028B02F47F420283028B0A430283704768
:1019A0000029818A02D041F0200101E021F02001CC
:1019B000818270470029818A02D041F0100101E044
:1019C00021F01001818270470029818A02D041F004
:1019D000080101E021F00801818270470029818916
:1019E00002D041F4004101E0C1F30E018181704752
:1019F0000029818A02D041F4006101E021F40061F4
:101A000081827047828A22F004028282828A0A439B
:101A1000828270470029818A02D041F0020101E0F0
:101A200021F00201818270470246002012880A429A
:101A300000D001207047C9430180704770B501F0A4
:101A40001F0501260024C1F3421306FA05F2012BFB
:101A50000FD0022B0FD0838A4FEA11210088134246
:101A600006FA01F600EA060001D000B10124204682
:101A700070BD8389F0E7038AEEE70A0A01219140ED
:101A8000C943018070470000003801400044004015
:101A900000480040004C00400050004008B50020C5
:101AA00004468D4D009000E014B98CA005F062FB57
:101AB000641C01F099FD00900A2808D18BA005F064
:101AC00059FB00231A466946A86903F0DDF900981E
:101AD0000C28E9D18CA005F04DFB00231A4669467D
:101AE000686903F0D1F9DFE708B500F001FF0020D5
:101AF000794CADF80000451E4FF4967600232A4637
:101B00006946606903F031FBBDF800100C2902D171
:101B100084A005F02FFB00F0A0FE304601F042FD4E
:101B2000ECE708B500206C4DADF800000446461EF9
:101B3000002332466946A86903F017FBBDF8000090
:101B40000A2803D0322001F02DFDF1E714B97AA064
:101B500005F010FB641CA4B201F046FD80B2012820
:101B60000BD002280CD0401E092802D27BA005F021
:101B700001FB322001F016FDE8E701F071FFF8E704
:101B800001F0A5FFF5E71CB502F08AFB00214FF636
:101B9000E070CDE90001102376A28C21372002F0FD
:101BA00054FF0621084602F092FF1E21142002F085
:101BB000CAFF4FF47A7402F0C2F9204603F0F1FE36
:101BC000F9E77CB505F080F804210022084603F00F
:101BD000D7F8414C606110B169A005F0CBFA04213F
:101BE0000022084603F0CCF8A06110B16DA005F00A
:101BF000C1FA39480326001DCDE900604FF4007595
:101C000000232A466FA1724803F005FD012802D186
:101C100070A005F0AFFA304800230830CDE900602D
:101C20004FF48066324671A1734803F0F4FC01283A
:101C300002D172A005F09EFA274904200C31CDE9AB
:101C400000010023324673A1754803F0E4FC01282B
:101C500002D174A005F08EFA1F4902201031CDE99F
:101C6000000100232A4657A1754803F0D4FC01283F
:101C700002D174A005F07EFA206803F0F7FCBDE8FD
:101C80007C4005F03BB81CB54FF44070FEF766FB96
:101C900000F064F900F08CF901F0E8FF01F0E8FFD2
:101CA00000F046FA01F014FC00F08CFF01F07CFC1F
:101CB0006BA005F05FFA08490120CDE9000142025E
:101CC00000236FA1724803F0A6FC012801D104F0A3
:101CD00048F84FF0FF301CBD28000020C7EBBFAA1A
:101CE000CABCB0B4BCFC0D0A00000000796F7520BE
:101CF00063686F6F7365206973206B6579626F72BB
:101D000061640D0A00000000796F752063686F6FD1
:101D100073652069732066696E6765727072696E9B
:101D2000740D0A00D6B8CEC6C4A3BFE9D3D0D4DAA6
:101D3000B6AF0D0A00000000CAE4C8EBC3DCC2EB7A
:101D4000C7EBCFC8B0B431A3ACD0DEB8C4C3DCC2DB
:101D5000EBC7EBB0B4320D0A00000000C7EBCAE4D9
:101D6000C8EBBACFB7A8D6B8C1EEA3A10D0A0D0A29
:101D700000000000627920726F62696E000000004E
:101D800020B4B4BDA82061733630385F51756575D5
:101D90006520CFFBCFA2B6D3C1D0B3C9B9A6210D60
:101DA0000A00000020B4B4BDA8206B65795F5175AE
:101DB00065756520CFFBCFA2B6D3C1D0B3C9B9A694
:101DC000210D0A004C45445F5461736B0000000014
:101DD000871B0008B4B4BDA84C45445F5461736BC5
:101DE000C8CECEF1B3C9B9A6210D0A004B45595F43
:101DF0005461736B00000000231B0008B4B4BDA83D
:101E00004B45595F5461736BC8CECEF1B3C9B9A6C7
:101E1000210D0A0041533630385F5461736B000066
:101E2000E91A0008B4B4BDA841533630385F546194
:101E3000736BC8CECEF1B3C9B9A6210D0A0000005C
:101E40009D1A0008B4B4BDA843484F4F53455F5492
:101E500061736BC8CECEF1B3C9B9A6210D0A0000DB
:101E6000D5E2CAC7D2BBB8F64672656552544F5325
:101E7000C8CECEF1B2E2CAD4CAB5D1E9A3A10A0054
:101E80004170705461736B4372656174650000004A
:101E9000C31B00087047FEE7FEE7FEE7FEE770475A
:101EA00010B504F0D9F8012803D0BDE8104004F0C3
:101EB00036BF10BD10B54FF480742046FEF704FB0A
:101EC000002804D02046BDE81040FEF70BBB10BD33
:101ED00070B51F4D40F225512846FFF7AFFDA0B168
:101EE0002846FFF744FDC4B21A4801F0AAFA0028B8
:101EF0001AD0828801688C548188491C89B28180FB
:101F00001E2902D3134801F0B2FA40F224412846B8
:101F1000FFF794FD012807D10E4801F0A8FA2846E2
:101F2000BDE87040FFF723BD70BD10B50A4C40F20C
:101F300025512046FFF782FD002808D02046FFF7F4
:101F400016FDC1B22046BDE81040FFF70CBD10BD24
:101F5000004800400401002000380140F8B501218C
:101F60001020FEF706FD4FF48074ADF800401020FD
:101F70008DF8030003200C4D8DF8020069462846B9
:101F8000FEF70FFB094E0822ADF8002069463046E7
:101F9000FEF707FB21462846FEF76DFB0821304679
:101FA000FEF769FBF8BD0000000801400010014089
:101FB00030B587B001210420FEF7DBFC0121880346
:101FC000FEF7D7FC4FF40070ADF8100018208DF824
:101FD00013000320544C8DF8120004A92046FEF78C
:101FE000E0FA2115ADF8101004218DF8131004A9A2
:101FF0002046FEF7D6FA00244FF4E1300090ADF809
:1020000008400C20494DADF80440ADF80A00ADF889
:102010000640ADF80C4069462846FFF7DBFB25215A
:102020008DF8141007208DF815008DF8164001204A
:102030008DF8170005A8FEF796F9012240F2255108
:102040002846FFF744FC01212846FFF736FC07B07D
:1020500030BD10B50446FFF786FC80212046FFF70F
:10206000E3FC0028F9D010BD2DE9F04115460E46DD
:102070000746002405E0315D3846FFF7EAFF641C9F
:10208000E4B2AC42F7D340213846FFF7CDFC00283C
:10209000F9D0BDE8F08170B50D4606460024304603
:1020A000295DFFF7D6FF641C285D0028F7D1402189
:1020B0003046FFF7B9FC0028F9D070BD70B5044672
:1020C000080ACDB201462046FFF74DFC802120468C
:1020D000FFF7AAFC0028F9D029462046FFF743FC69
:1020E00080212046FFF7A0FC0028F9D070BD70B514
:1020F0000E4D0446C1B22846FFF735FC8021284624
:10210000FFF792FC0028F9D0204670BD10B5074CAF
:1021100020212046FFF788FC0028F9D02046BDE8A2
:102120001040FFF724BC00000008014000380140C7
:1021300038B501211420FEF71CFC0120ADF8000089
:1021400004248DF8034069460E48FEF72AFAE0029F
:10215000ADF800008DF8034069460B48FEF721FA00
:1021600038BD70B50C460546FEF771FA012801D05E
:10217000002070BD21462846FEF769FA0128F9D0F3
:10218000012070BD00080140001001407CB5002511
:102190004FF6E07410237FA22E211420CDE90045D4
:1021A00002F053FC10237FA23E211420CDE900450C
:1021B00002F04BFC10237FA24E211420CDE90045F4
:1021C00002F043FC10237FA25E211420CDE90045DC
:1021D00002F03BFC7CBD10B57E4804F0CBFF7EA036
:1021E00004F0C8FF88A004F0C5FF94A004F0C2FF6B
:1021F0009FA004F0BFFFADA004F0BCFFBDE81040FD
:10220000C4E77CB500254FF6E0741023B4A22E215C
:102210001420CDE9004502F018FC1023B0A23E21A5
:102220001420CDE9004502F010FC1023ACA24E2191
:102230001420CDE9004502F008FC1023A8A25E217D
:102240001420CDE9004502F000FC7CBD10B5A8A02B
:1022500004F090FF00F09DFE18B1BDE8104000F0C2
:10226000B2BEBDE81040AAA004F084BF10B5B3A070
:1022700004F080FFBA4804F07DFF00F0E9FDF0288B
:10228000F8D280B2012100F055FE18B1BDE810402F
:1022900000F099BEBDE81040B2A004F06BBF08B5D5
:1022A0000020ADF80000BCA004F064FF00F034FD95
:1022B00050B9012000F04EFD30B96B46F0220021EC
:1022C000012000F0F5FD10B100F07DFE08BDBDF865
:1022D0000010C0A004F04EFF08BDFEB50024254646
:1022E00026464FF6E077052D2ED2DFE805F00336BF
:1022F00052515000641CA4B2C4A004F03BFFCDE9CD
:1023000000761023CDA23E21142002F09EFB00F0A7
:1023100003FD00283AD1012000F01CFD0028F9D16E
:10232000CDA004F027FFCDE900761023D4A23E21F2
:10233000142002F08AFB02ABF0220021012000F001
:10234000B7FD10B10024012545E2BDF80810D4A066
:1023500004F010FF1023DFA249E2641CA4B2E3A042
:1023600004F008FFCDE900761023EEA23E211420F0
:1023700002F06BFB00F0D0FC40B9022000F0EAFC58
:1023800020B9ECA004F0F6FE1023E7E1F0E135E21D
:1023900016E2F0E141646420202020202D2D312020
:1023A00020000000436F6D70617265202D2D32207A
:1023B0002000000044656C65746520202D2D3320BD
:1023C00020000000456D7074792020202D2D3420D0
:1023D0002000000098A900083C3C2D4153363038BD
:1023E0002D494E464F2D3E3E20202020D6B8C1EE2E
:1023F0002020202D2D2D2D2D2D202020202020B9F6
:10240000A6C4DC200D0A0A003C3C2D41533630386E
:102410002D494E464F2D3E3E2020202020312020A9
:102420002020202D2D2D2D2D2D20202020CCEDBC49
:10243000D3D6B8CEC6200D0A0A0000003C3C2D4180
:10244000533630382D494E464F2D3E3E2020202019
:10245000203220202020202D2D2D2D2D2D2020201C
:1024600020B6D4B1C8D6B8CEC6200D0A0A000000E6
:102470003C3C2D41533630382D494E464F2D3E3E83
:1024800020202020203320202020202D2D2D2D2DF8
:102490002D20202020C9BEB3FDD6B8B6A8D3C3BB1B
:1024A000A7D6B8CEC60D0A0A000000003C3C2D415C
:1024B000533630382D494E464F2D3E3E20202020A9
:1024C000203420202020202D2D2D2D2D2D202020AA
:1024D00020C7E5BFD5D6B8CEC6BFE20D0A0A0000B8
:1024E000202020202020202020202020200000004C
:1024F0003C3C2D41533630382D494E464F2D3E3E03
:1025000020C7E5BFD5D6B8CEC6BFE20D0A0A000087
:102510003C3C2D41533630382D494E464F2D3E3EE2
:1025200020C7E5BFD5D6B8CEC6BFE2B3C9B9A6A30A
:10253000A1A3A1A3A10D0A0D0A0A00003C3C2D4154
:10254000533630382D494E464F2D3E3E20C9BEB33E
:10255000FDD6B8B6A8D3C3BBA749440D0A0A0000EC
:1025600054A900083C3C2D41533630382D494E4685
:102570004F2D3E3E20C9BEB3FDD6B8B6A8D3C3BBCF
:10258000A7D6B8CEC6B3C9B9A6A3A1A3A1A3A10DCE
:102590000A0D0A0A000000003C3C2D415336303839
:1025A0002D494E464F2D3E3E202A2A2A2A2A2AC34A
:1025B000FCC1EEA3BAB6D4B1C8D6B8CEC6A3ACC7D8
:1025C000EBB0B4CAD6D6B82A2A2A2A2A2A0D0A0A71
:1025D000000000003C3C2D41533630382D494E461A
:1025E0004F2D3E3E20B6D4B1C8D6B8CEC6B3C9B979
:1025F000A6A3ACD6B8CEC64944A3BA2564A3A1A36A
:10260000A1A3A10D0A0D0A0A000000003C3C2D41C7
:10261000533630382D494E464F2D3E3E202A2A2A29
:102620002A2A2AC3FCC1EEA3BAC7EBB0B4CAD6D6D5
:10263000B82A2A2A2A2A2A0D0A0A0000506C656143
:10264000736520707265737320796F757220666987
:102650006E676572000000003C3C2D4153363038F7
:102660002D494E464F2D3E3E20CAE4C8EBD6B8CE8B
:10267000C631D5FDB3A3A3A1A3A1A3A10D0A0A004E
:1026800020656E7465722066696E67657270726926
:102690006E7431207375636365656420000000000B
:1026A0003C3C2D41533630382D494E464F2D3E3E51
:1026B00020D6B8CEC6D2D1B4E6D4DAA3ACD6B8CE42
:1026C000C64944A3BA2564A3A1A3A1A3A10D0A0DE1
:1026D0000A0A000066696E6765727072696E74201E
:1026E0006973206578697374656400003C3C2D4112
:1026F000533630382D494E464F2D3E3E202A2A2A49
:102700002A2A2AC3FCC1EEA3BAC7EBD4D9B0B4D2EB
:10271000BBB4CECAD6D6B82A2A2A2A2A2A0D0A0A31
:1027200000000000616761696E207072657373203C
:10273000000000003C3C2D41533630382D494E46B8
:102740004F2D3E3E20CAE4C8EBD6B8CEC632D5FDEA
:10275000B3A3A3A1A3A1A3A10D0A0A00CDE900760A
:102760006EA23E21142002F070F90024022532E00E
:1027700000F029FC2FE071A004F0FCFC00F034FB19
:10278000050010D078A004F0F5FCCDE90076102308
:1027900082A23E21142002F058F9284600F013FCD2
:1027A0000024254617E082A004F0E4FCCDE9007681
:1027B00010238AA23E21142002F047F903250AE0E3
:1027C0008FA004F0D7FC00F029FB002835D196A09B
:1027D00004F0D0FC04254FF47A7000F0DDFE042CE8
:1027E0007FF481AD9BA004F0C5FC1023A3A2CDE92A
:1027F00000763E21142002F028F9FEBDCDE90076D6
:102800001023A1A23E21142002F01FF9AA4804F0CF
:10281000B1FCCDE900761023A8A23E21142002F0DD
:1028200014F900F015FB80B2ADF80800F028E5D2ED
:1028300081B2022000F013FB08B1002598E7A6A0A2
:1028400004F098FCCDE9007610238FA23E211420DD
:1028500002F0FBF81023ACA2C9E71CB5FFF7BBFCE4
:10286000FFF794FC00264FF6E07700F0BDFE451E12
:1028700004460C2D03D20146A6A004F07BFC012CDB
:102880001DD0022C29D0032C2AD0042C2BD00C2DA7
:10289000EBD2A2A004F06EFCFFF79DFCFFF7B1FCA9
:1028A000CDE900761023A7A23E21142002F0CDF836
:1028B00040F6B83000F070FEFFF768FCD5E7FFF790
:1028C000A0FC1023AFF2E832CDE900763E211420BF
:1028D00002F0BBF8FFF701FD07E0FFF7E0FC04E0C2
:1028E000FFF7C4FC01E0FFF7B1FCFFF774FCBCE7A5
:1028F00010B599A004F03EFC9A4800F049FA4FF454
:10290000807118B19848016098A003E09648001FB4
:102910000160A4A0BDE8104004F02CBC20656E74DA
:1029200065722066696E6765727072696E743220B6
:102930007375636365656420000000003C3C2D41B5
:10294000533630382D494E464F2D3E3E20D5FDD4CE
:10295000DAB6D4B1C8C1BDB4CECAE4C8EBB5C4D6EA
:10296000B8CEC60D0A0A00003C3C2D415336303823
:102970002D494E464F2D3E3E20B6D4B1C8CAA7B011
:10298000DCA3ACC7EBD6D8D0C2C2BCC8EBD6B8CE9D
:10299000C6A3A1A3A1A3A10D0A0A00002066616934
:1029A0006C2C707265737320616761696E20000022
:1029B0003C3C2D41533630382D494E464F2D3E3E3E
:1029C00020CAE4C8EBD6B8CEC6B6D4B1C8B3C9B92C
:1029D000A6A3A1A3A1A3A10D0A0A00005468652023
:1029E000696E70757420636F6D70617269736F6E5C
:1029F000206973207375636365737366756C00007B
:102A00003C3C2D41533630382D494E464F2D3E3EED
:102A100020D5FDD4DAC9FAB3C9D6B8CEC6C4A3BF8F
:102A2000E90D0A0A000000003C3C2D4153363038C5
:102A30002D494E464F2D3E3E20C9FAB3C9D6B8CED9
:102A4000C6C4A3BFE9B3C9B9A6A3A1A3A1A3A10DFD
:102A50000A0A00003C3C2D41533630382D494E4681
:102A60004F2D3E3E20C2BCD6B8CEC6CAA7B0DCA30E
:102A7000A10D0A0D0A0D0A0A000000002066616916
:102A80006C20656E7465720020202020202020209C
:102A90002020202020202020202020202020202036
:102AA0002020202020202020202020202020202026
:102AB000202020200000000054A90008656E7465E5
:102AC00072206D756E20666F722066696E67657222
:102AD0007072696E740000003C3C2D4153363038F2
:102AE0002D494E464F2D3E3E20C2BCC8EBD6B8CE37
:102AF000C6C4A3BFE9B3C9B9A6A3A1A3A1A3A10D4D
:102B00000A0D0A0A00000000207375636365737381
:102B10002020000025640D0A000000003C3C2D41EF
:102B2000533630382D494E464F2D3E3E20C7EBCA16
:102B3000E4C8EBBACFB7A8D6B8C1EEA3A10D0A0D71
:102B40000A0A0000656E7465722076616C69642003
:102B50002020206D756E0000D6B8CEC6C4A3BFE994
:102B60000D0A000054000020140801403C3C2D4197
:102B7000533630382D494E464F2D3E3E20CEB4BC04
:102B8000ECB2E2B5BDD6B8CEC6C4A3BFE9A3ACC70C
:102B9000EBBCECB2E9C1ACBDD3A3A1A3A1A3A10D31
:102BA0000A0A00003C3C2D41533630382D494E4630
:102BB0004F2D3E3E20CDA8D1B6B3C9B9A60D0A0A05
:102BC0000000000070B588B001210520FDF7D1FE9E
:102BD00001210820FDF7CDFE01218804FDF7D2FE7A
:102BE00027208DF8040006208DF8050001258DF8BA
:102BF00006508DF8075001A8FDF7B5FB17208DF89A
:102C0000040007208DF8050002208DF8060001A8B9
:102C1000FDF7A9FB2C02ADF8004004268DF80360F7
:102C20006946F648FDF7BDFC08210020FDF76DFD63
:102C3000069400248DF81C4010208DF81D008DF89E
:102C40001E5006A8FDF7F0FBA802ADF80000182002
:102C50008DF803000320EA4D8DF8020069462846EE
:102C6000FDF79FFCE814ADF800008DF8036069469D
:102C70002846FDF796FC4FF46140ADF80C400290F9
:102C8000ADF80E40ADF81040ADF814400C20DD4C0E
:102C9000ADF8120002A92046FEF79CFD012240F289
:102CA00025512046FEF713FE012240F22441204622
:102CB000FEF70DFE01212046FEF7FFFD08B070BDB6
:102CC00010B5EF2000F00DFA012000F00AFACE4C0A
:102CD0002068000E00F005FA2068C0F3074000F0FD
:102CE00000FA2088C0F3072000F0FBF92078BDE847
:102CF000104000F0F6B910B50446C44800F0BAFB25
:102D000038B10068407A2080C04800F0C9FB2088B4
:102D100010BDFF20208010BD08B50020ADF80000D8
:102D200040F6B83000F038FCFFF7CAFF012000F091
:102D3000D8F9032000F0E2F9012000F0D2F90520D3
:102D400000F0E5F94FF4FA7000F026FC6846FFF752
:102D5000D2FF08BD38B504460020ADF80000FFF7EB
:102D6000AFFF012000F0BDF9042000F0C7F90220F8
:102D700000F0B7F9204600F0B4F9E01D00F0C7F903
:102D80004FF4C87000F008FC6846FFF7B4FF38BD88
:102D900008B5FFF795FF012000F0A3F9002000F02F
:102DA000A0F9002000F09DF9642000F0F5FB9748A1
:102DB00000F060FBB0B100680178EF290DD14178D7
:102DC00001290AD18179072907D141790091037935
:102DD000C27881788EA004F0CDF98C4800F060FBB9
:102DE000002008BD012008BD08B50020ADF8000096
:102DF000FFF766FF012000F074F9032000F07EF970
:102E0000032000F06EF9072000F081F94FF4FA700A
:102E100000F0C2FB6846FFF76EFF08BD08B5002052
:102E2000ADF80000FFF74CFF012000F05AF9032035
:102E300000F064F9052000F054F9092000F067F96A
:102E40004FF4FA7000F0A8FB6846FFF754FF08BD86
:102E500010B5214677A004F08DF9204610BD38B595
:102E6000054600200C46ADF80000FFF729FF0120C1
:102E700000F037F9062000F041F9062000F031F9A2
:102E8000284600F02EF9200A00F02BF9E0B200F0FD
:102E900028F905EB1420E1B208440D3000F037F9B1
:102EA0004FF4FA7000F078FB6846FFF724FF38BD56
:102EB0002DE9F0411E4614460D460746FFF700FF78
:102EC000012000F00EF9082000F018F91B2000F096
:102ED00008F9384600F005F9280A00F002F9E8B2CE
:102EE00000F0FFF8200A00F0FCF8E0B200F0F9F87A
:102EF00007EB1520E9B2084400EB1420E1B20844C6
:102F0000243000F004F94FF4FA7000F045FB3F481C
:102F100000F0B0FA60B101684C7AC87A897A00EBA7
:102F200001203080394800F0BBFA2046BDE8F0812E
:102F3000FF20FBE738B5054600200C46ADF8000041
:102F4000FFF7BEFE012000F0CCF8072000F0D6F815
:102F50000C2000F0C6F8280A00F0C3F8E8B200F030
:102F6000C0F8200A00F0BDF8E0B200F0BAF8E8B20C
:102F700000EB152000EB1420E1B20844143000F0FF
:102F8000C6F84FF4C87000F007FB6846FFF7B3FEC1
:102F900038BD08B50020ADF80000FFF791FE012014
:102FA00000F09FF8032000F0A9F80D2000F099F838
:102FB000112000F0ACF84FF4C87000F0EDFA68464C
:102FC000FFF799FE08BD212817D2DFE800F01113A2
:102FD00015636567696B6D6F717388888888757113
:102FE000888888778888797B7D7F81888883850039
:102FF00018A072E01DA070E04AE070E000080140F7
:10300000000C014000480040540000200401002052
:103010003C3C2D41533630382D494E464F2D3E3ED7
:1030200020B5D8D6B73A3078257825782578257810
:103030000D0A0A003C3C2D41533630382D494E468E
:103040004F2D3E3E2049443A6E756D3D25640D0A74
:103050000A0000003C3C2D41533630382D494E4685
:103060004F2D3E3E204F4B0D0A0A00003C3C2D41A7
:10307000533630382D494E464F2D3E3E203F3F3F80
:103080003F3F3F3F3F3F3F3F3F0D0A0A00000000E8
:1030900023A022E02CA020E034A01EE040A01CE0F1
:1030A0004BA01AE0554818E055A016E05CA014E0CB
:1030B00067A012E06EA010E079A00EE080A00CE006
:1030C0008CA00AE094A008E09BA006E0A2A004E087
:1030D000AAA002E0B3A000E0B9A004F04BB8BFA0E2
:1030E000FBE710B5C64C01462046FEF73CFC8021AC
:1030F0002046FEF799FC0028F9D010BD10B5044613
:10310000000AFFF7EEFFE0B2BDE81040E9E710B5B6
:103110000446000AFFF7E5FFE0B2BDE81040E0E733
:103120003C3C2D41533630382D494E464F2D3E3EC6
:10313000203F3F3F3F3F3F3F3FA7DE3F3F3F3F3FB7
:103140003F0D0A0A000000003C3C2D415336303848
:103150002D494E464F2D3E3E203F3F3F3F3F3F3F94
:103160003F3F3F3F3F0D0A0D0A0A00003C3C2D4106
:10317000533630382D494E464F2D3E3E203F3F3F7F
:103180003F3F3F3F3FA8C03F3F3F3F3F3F3F3F3F65
:103190003F3F3F3F3F3F3F0D0A0D0A0A000000003E
:1031A0003C3C2D41533630382D494E464F2D3E3E46
:1031B000203F3F3F3F3F3F3F3F3F3F3F3F3F3F3F3E
:1031C0003F3F3F3F3F3F3F3F3F3F0D0A0D0A0A0051
:1031D0003C3C2D41533630382D494E464F2D3E3E16
:1031E000203F3F3F3F3F3F3F3F3F3F3F3F3F3F3F0E
:1031F0003F3F3F3F3F0D0A0D0A0A0000ECA90008BF
:103200003C3C2D41533630382D494E464F2D3E3EE5
:10321000203F3F3F3F3F3F3F0D0A0D0A0A0000009D
:103220003C3C2D41533630382D494E464F2D3E3EC5
:10323000203F3F3F3F3F3F3F3F3F3F3F3F3F3F3FBD
:103240003F3F3F3F3F3F3F3F0D0A0D0A0A0000004E
:103250003C3C2D41533630382D494E464F2D3E3E95
:10326000203F3F3F3F3F3F3F3F3F3F0D0A0A0000A7
:103270003C3C2D41533630382D494E464F2D3E3E75
:10328000203F3F3F3F3F3F3F3F3F3F3F3F3F3F3F6D
:103290003F3F3F3F3F3F3FA6B60D0A0A00000000F8
:1032A0003C3C2D41533630382D494E464F2D3E3E45
:1032B000203F3F3F3F3F3F3F3F3F0D0A0A00000096
:1032C0003C3C2D41533630382D494E464F2D3E3E25
:1032D000203F3F3F3F3F3F3F3F3F3F3F3F3FA7B93B
:1032E0003F3F3F3F3F3F3F3F3F3F3F3F3F3F0D0A55
:1032F0000A0000003C3C2D41533630382D494E46E3
:103300004F2D3E3E203F3FA7D520464C41534820FD
:103310003F3F3F3F0D0A0A003C3C2D4153363038B9
:103320002D494E464F2D3E3E20A6C43F3F3F3F3FD6
:103330003F3F0D0A0A0000003C3C2D415336303817
:103340002D494E464F2D3E3E203F3FA7B93F3F3FC0
:103350003F3F3F3F0D0A0A003C3C2D415336303879
:103360002D494E464F2D3E3E203F3F3F3F3F3FDAE7
:10337000853F3F3F3F3F3F3F0D0A0A003C3C2D4108
:10338000533630382D494E464F2D3E3E203F3F3F6D
:10339000A1C03F3F3F3F3F3F3F3F3F3F3F0D0A0AF6
:1033A000000000003C3C2D41533630382D494E463C
:1033B0004F2D3E3E203F3F3F3F3F3F0D0A0A00005A
:1033C0003C3C2D41533630382D494E464F2D3E3E24
:1033D000203F3F3F3F3F3F3F0D0A0A003C3C2D410D
:1033E000533630382D494E464F2D3E3E203F3FFA52
:1033F000933F3F3F3F3F3F3F3F3F3F3F0D0A0A0064
:103400000048004001600021416081607047D0E9C0
:10341000002180685140814201D101207047002085
:10342000704781684068814201D1012070470020C7
:10343000704700684FF0FF3202EB4000491C084023
:10344000704700B50346FFF7E2FF08B1002000BD5A
:1034500099681869814203D11846FFF7EAFF18619D
:103460001968491E084003EB8000406900BD0169EE
:103470008160704700B50346FFF7D3FF08B1002015
:1034800000BD5968D868814203D11846FFF7D1FFC3
:10349000D8601968491E084003EB8000406900BDF0
:1034A0000268C1680023521E114000EB8101496986
:1034B0008B80C1684160704700202F49024651F857
:1034C00030300BB141F83020401C0228F7D3704750
:1034D0002DE9F041284D002402212C606C60AC6085
:1034E00005F11000EC60FFF78DFF05F1100605F106
:1034F0002C07C4EB041007EB400045F8340006EB42
:10350000840105EBC400486155F834001E2103F026
:103510007EFC641C022CECD3BDE8F08170B50D4636
:10352000064600240FE0FFF78CFF002812D0026847
:10353000315D11558188491C89B281800FA003F04B
:1035400019FE641CE4B20C48AC4200F11000EAD34E
:103550000169816070BD084800B51030FFF78AFF2F
:10356000002808D0026880880021115402485DF8C4
:1035700004EB103094E700BDF40000200D0A6461F4
:1035800074615F702D3E6C656E203D256400000007
:1035900000EB800002F005BA02F003BA00EB8000F5
:1035A00002F0FFB902F0FDB938B501211020FDF796
:1035B000E0F910208DF803004FF47060ADF80000C2
:1035C0000320FA4C8DF8020069462046FCF7E9FF1B
:1035D00048218DF803104FF47041ADF80010694692
:1035E0002046FCF7DEFF38BD2DE9F041EF4E4FF0ED
:1035F000FF354FF470672C4639463046FDF73DF8ED
:103600000A20FFF7CBFF3046FDF728F8000AF02824
:103610007DD10A20FFF7C6FF39463046FDF72DF869
:103620000120FFF7BBFF3046FDF718F8000AF0282D
:103630006DD000213046FDF727F80120FFF7B2FFDB
:103640004FF47E413046FDF71FF83046FDF706F88F
:103650000F27B7EB103F19D01420FFF7A3FF304618
:10366000FCF7FCFFB7EB103F10D03046FCF7F6FF3D
:10367000FE2101EA1020BE2807D0DE2803D0EE2864
:1036800004D1012402E0022400E00324002130469A
:10369000FCF7FAFF0520FFF785FF4FF47D41304628
:1036A000FCF7F2FF3046FCF7D9FFB7EB103F15D01F
:1036B0001420FFF777FF3046FCF7D0FFB7EB103F41
:1036C0000CD03046FCF7CAFFFD2101EA1020BD28CE
:1036D00064D0DD2860D0ED285CD02C460021304637
:1036E000FCF7D2FF0520FFF75DFF4FF47B4130462A
:1036F000FCF7CAFF3046FCF7B1FFB7EB103F17D01D
:103700001420FFF74FFF3046FCF7A8FF00E037E03A
:10371000B7EB103F0CD03046FCF7A0FFFB2101EACD
:103720001020BB2840D0DB283CD0EB2838D02C46DA
:1037300000213046FCF7A8FF0520FFF733FF4FF4C8
:1037400077413046FCF7A0FF3046FCF787FFB7EB28
:10375000103F15D01420FFF725FF3046FCF77EFF01
:10376000B7EB103F0CD03046FCF778FFF72101EAA9
:103770001020B7281ED0D7281AD0E72816D02C46FC
:10378000601E0C2803D2214689A003F0F3FC2046DA
:10379000BDE8F0810424A1E705249FE706249DE706
:1037A0000724C5E70824C3E70924C1E70A24E7E79B
:1037B0000B24E5E70C24E3E738B501210420FDF7ED
:1037C000D8F80F20ADF8000010207C4C8DF80300D5
:1037D00069462046FCF7E5FEF021ADF800104821CF
:1037E0008DF8031069462046FCF7DBFE38BD2DE955
:1037F000F041724F00240F213846FCF73EFF0A20AB
:10380000FFF7CCFE3846FCF729FFC5B20120FFF7D1
:10381000C5FE6B4E307800287ED0F02D7DD00A207A
:10382000FFF7C0FE002030703D463846FCF716FF1B
:10383000C0B2F0283DD0702870D0B0286FD0D0280A
:103840003ED0E02801D00020A2E70F212846FCF757
:1038500012FF01212846FCF710FF0A20FFF79EFE09
:103860002846FCF7FBFEC1B2EE2923D00F212846E3
:10387000FCF701FF02212846FCF7FFFE0120FFF7BD
:103880008DFE2846FCF7EAFEC1B2ED2914D00F21C7
:103890002846FCF7F0FE04212846FCF7EEFE012046
:1038A000FFF77CFE2846FCF7D9FEC0B2EB2805D016
:1038B0000D24CCE00124CAE00524C8E00924C6E0B8
:1038C0000F212846FCF7D7FE01212846FCF7D5FE3C
:1038D0000120FFF763FE2846FCF7C0FEC1B2DE29D7
:1038E00028D00F212846FCF7C6FE02212846FCF707
:1038F000C4FE0120FFF752FE2846FCF7AFFEC1B21E
:10390000DD2919D00F212846FCF7B5FE04212846F1
:10391000FCF7B3FE012003E095E096E058E00FE0ED
:10392000FFF73CFE2846FCF799FEC0B2DB2805D025
:103930000E248CE002248AE0062488E00A2486E033
:103940000F212846FCF797FE01212846FCF795FE3B
:103950000120FFF723FE2846FCF780FEC1B2BE29F6
:1039600030D00F212846FCF786FE02212846FCF7BE
:1039700084FE0120FFF712FE2846FCF76FFEC1B25D
:10398000BD2921D00F212846FCF775FE04212846C9
:10399000FCF773FE0120FFF701FE2846FCF75EFEF0
:1039A000C0B2BB2812D00F2451E00000001001402B
:1039B000CAE4C8EBB5C4CAC725640A0000080140C0
:1039C00058000020032442E0072440E00B243EE09E
:1039D0000F212846FCF74FFE01212846FCF74DFE3B
:1039E0000120FFF7DBFD2846FCF738FEC1B27E2937
:1039F00023D00F212846FCF73EFE02212846FCF783
:103A00003CFE0120FFF7CAFD2846FCF727FEC1B2A5
:103A10007D2914D00F212846FCF72DFE04212846CD
:103A2000FCF72BFE0120FFF7B9FD2846FCF716FE38
:103A3000C0B27B2805D0102409E0042407E0082444
:103A400005E00C2403E0F02D01D101203070204668
:103A50009EE6504A4E4B11785854491C11707047DD
:103A600070B54DA003F086FB4A4DFFF7BDFD84B253
:103A7000601E0928F9D221464BA003F07BFB2046AB
:103A8000FFF7E7FF28780628EFD34CA003F072FB7E
:103A900000243F4E2C702878315C4CA003F06AFB68
:103AA0002878401CC0B228700628F4D348A003F040
:103AB00061FB2C7006224749354803F0B3F920B169
:103AC00045A0BDE8704003F055BB45A0F9E72DE9DE
:103AD000F04148A003F04EFB4BA003F04BFB2C4DF4
:103AE00000272C4EFFF780FD84B2601E0928F9D212
:103AF000214649A003F03EFB2046FFF7AAFF30789D
:103B00000528EFD92DA003F035FB37703078295CFC
:103B10002EA003F02FFB3078401CC0B23070062876
:103B2000F4D32BA003F026FB06222A49184803F001
:103B300079F920B1BDE8F04127A003F01BBB3BA001
:103B400003F018FB3DA003F015FBFFF74DFD84B219
:103B5000601E092806D221463CA003F00BFB20463C
:103B6000FFF777FF30780528EFD9DFF86880002469
:103B70003AA0295D08F8041003F0FCFA641CA4B212
:103B8000062CF5D336A003F0F5FA3770AAE700004B
:103B90004B00002044000020BFAACABCCAE4C8EB06
:103BA000C3DCC2EB0D0A0A005468697320697320F4
:103BB000532564206B65790D0A000000C4FACAE43D
:103BC000C8EBB5C4C3DCC2EBCAC700002025640043
:103BD0000D0A00004500002067756E0D0A00000008
:103BE000BFAACBF8B3C9B9A6A3ACC7EBBDF80D0A01
:103BF00000000000BFAACABCD0DEB8C4C3DCC2EB60
:103C0000C8CB0D0A0A000000C7EBCAE4C8EBBEC966
:103C1000C3DCC2EB0D0A0000CAE4C8EBB5C4CAC7D6
:103C20002564206B65790D0A00000000BEC9C3DC65
:103C3000C2EBD5FDC8B70D0A00000000CAE4C8EB0E
:103C4000D0C2C3DCC2EB0D0A00000000CAE4C8EB1E
:103C5000B5C4CAC72564200D0A0000002564000011
:103C60000AD0DEB8C4B3C9B9A60D0A0000F0A2B8E4
:103C700010B50CA003F07EFA4FF44070FCF76EFB19
:103C800041F61F41092000F025F81121632000F0C2
:103C9000B3F81121272000F0D9F8BDE8104007A0A3
:103CA00003F068BAD5FDD4DAB3F5CABCBBAFB3AC88
:103CB000C9F9B2A8C4A3BFE90D0A00000D0A484320
:103CC0002D53523034B3F5CABCBBAFCDEAB3C90DE6
:103CD0000A0000007FB50D46044601210220FCF7D2
:103CE00051FEADF80440ADF8005000242F4DADF862
:103CF0000640ADF8024069462846FDF75BF8012210
:103D000011462846FDF713FB1D218DF80C100520E8
:103D10008DF80D008DF80E4001208DF80F0003A8DE
:103D2000FCF721FB01212846FDF7ECFA7FBD70B5B9
:103D30001F4C1E4D01212068401C20602846FDF7C5
:103D40000AFD002831D001212846FDF710FD20682A
:103D50000A21B0FBF1F201FB1201002925D1221D3D
:103D60001178491C11701421B0FBF1F301FB130110
:103D700000291AD15178491C51704FF4FA71B0FBE7
:103D8000F1F301FB130100290FD19178491C9170C7
:103D90004FF47A71B0FBF1F301FB1300002804D15A
:103DA000D078401CD0700020206070BD000400401E
:103DB0006800002038B501210820FCF7DAFD012059
:103DC000ADF8000010208DF8030003209C4C8DF806
:103DD000020069462046FCF7E4FB0221ADF8001022
:103DE00004218DF8031069462046FCF7DAFB022116
:103DF0002046FCF742FC38BD7FB50D460646012142
:103E00000420FCF7BFFD1E208DF80C0001228DF868
:103E10000F208DF80D2000248DF80E4003A8FCF72C
:103E2000A2FAADF80460ADF80050ADF80240ADF86C
:103E300006408DF80840834C69462046FCF7BAFFDF
:103E4000012211462046FDF772FA7FBD7FB50D466F
:103E5000064601210846FCF795FD1C208DF80C0054
:103E600001208DF80F0000248DF80D408DF80E40D4
:103E700003A8FCF778FAADF80640ADF802408DF8DB
:103E800008404FF08044ADF80460ADF8005069463A
:103E90002046FCF78FFF01212046FDF759FC012247
:103EA00011462046FDF743FA7FBD70B5664C0121EF
:103EB0008D0760602846FDF725FA61680029FDD16D
:103EC0002846BDE87040FDF71DBA10B544F62061E4
:103ED0005B4C884205D922212046FCF7CCFB01210E
:103EE00011E0A0F51C5042F20F711138884205D83C
:103EF00021212046FCF7BFFB022104E003212046DC
:103F0000FCF7B9FB20212046BDE81040FCF7B5BB0B
:103F100010B54D4C216801EBC10202EB011100EB21
:103F2000810002F0FEFF03F01AF84FF03332474BE6
:103F300002F085FF02F0FAFF0021216010BD2DE99B
:103F4000F0413F4D3F4F424E052401212846FCF7EA
:103F500094FB01212846FCF78EFB0A20FFF722FB89
:103F600001212846FCF789FB02212846FCF76FFB5C
:103F70000028F9D001213846FDF7C4F9022128466E
:103F8000FCF765FB0128F9D000213846FDF7BAF9A6
:103F90003048FDF7D2FB01462F4801600068FFF76B
:103FA000B7FF2E4908603068096808443060642013
:103FB000FFF7F8FA641E002CC7DC30680621B0FB5E
:103FC000F1F030603068FFF780FF30686424B0FBA8
:103FD000F4F123A003F0CEF83068B0FBF4F104FB59
:103FE000110123A003F0C6F8BDE8F0416420FFF7FB
:103FF000D9BA10B5134C01212046FDF7A2FB0028C9
:1040000009D0114920460A68521C0A60BDE81040D8
:104010000121FDF79DBB10BD10B501218C07204685
:10402000FDF78FFB002809D0074920464A68521E39
:104030004A60BDE810400121FDF78ABB10BD0000B9
:10404000000C014000080040700000203333DB3FCB
:1040500064000020000400405C000020600000209C
:104060000D0A44697374616E63653A25642E00001D
:104070002564636D0A0D0A002DE9F84301211C2017
:10408000FCF777FC20201825ADF800008DF80350D0
:1040900003248DF802406946FE4F3846FCF781FA4A
:1040A0008026ADF800608DF802408DF80350694617
:1040B0003846FCF776FA4020ADF80000DFF8D883E8
:1040C0008DF8024010258DF8035069464046FCF7F4
:1040D00068FAADF800608DF802408DF8035069462B
:1040E0004046FCF75EFA2E01ADF800608DF8024004
:1040F0008DF8035069464046FCF753FA6F01ADF85E
:1041000000708DF802408DF8035069464046FCF778
:1041100048FAE148103006600760BDE8F88310B542
:10412000012186B00803FCF724FC0020ADF8000054
:10413000ADF804004FF48271ADF802100221ADF821
:1041400006100121ADF80C00ADF80810ADF80E0016
:1041500049020720D14CADF80A10ADF810006946AD
:104160002046FCF779FC01212046FCF7F1FC06B063
:1041700010BD30B5CA4A00244FF4FA751480C74BFD
:1041800005E01188491C89B21180A9420BD8198910
:104190008907F6D59881148007E01088401C80B20A
:1041A0001080FA2801D9002030BD1889C007F4D04A
:1041B0009889C0B230BD30B5B74C054610344FF0C9
:1041C0008070206080202060280AFFF7D2FFE8B2CC
:1041D000FFF7CFFFA015206030BD10B5AE4C4FF0FB
:1041E00080711034216049102160C0B2FFF7C1FF17
:1041F000A015206010BD10B5A74C4FF08071103491
:10420000216080212160FFF7B4FFA015206010BD60
:10421000F0B504461D4617460E462A20FFF7DDFF7F
:104220000020FFF7E8FFE0B2FFF7E5FF0020FFF70F
:10423000E2FFF8B2FFF7DFFF2B20FFF7CEFF0020F1
:10424000FFF7D9FFF0B2FFF7D6FF0020FFF7D3FF4B
:10425000E8B2FFF7D0FFBDE8F0402C20BDE72DE924
:10426000F0411C4615460E460746DDF81880FFF75C
:1042700056FFA5EB070CA01B401C0CF1010C0CFB1E
:1042800000FC23462A4631463846FFF7C1FF02E0CC
:104290004046FFF790FFBCF1010CF9D2BDE8F08178
:1042A000F8B5804C002581202570A5606080A02095
:1042B000A080FFF7E1FEFFF732FF774E4FF480005A
:1042C000103630601420FFF767F94020306014206A
:1042D000FFF762F91120FFF780FF7820FFF75CF904
:1042E000B120FFF77AFF0520FFF785FF3C20FFF79D
:1042F00082FF3C20FFF77FFFB220FFF76EFF052013
:10430000FFF779FF3C20FFF776FF3C20FFF773FFB4
:10431000B320FFF762FF0520FFF76DFF3C20FFF79A
:104320006AFF3C20FFF767FF0520FFF764FF3C2092
:10433000FFF761FF3C20FFF75EFFB420FFF74DFF62
:104340000320FFF758FFC020FFF747FF2820FFF7A3
:1043500052FF0820FFF74FFF0420FFF74CFFC1205A
:10436000FFF73BFFC020FFF746FFC220FFF735FFF6
:104370000D20FFF740FF0020FFF73DFFC320FFF7B0
:104380002CFF8D20FFF737FF2A20FFF734FFC420D2
:10439000FFF723FF8D20FFF72EFFEE20FFF72BFF07
:1043A000C520FFF71AFF1A20FFF725FF3620FFF779
:1043B00014FFC020FFF71FFFE020FFF70EFF0420CF
:1043C000FFF719FF2220FFF716FF0720FFF713FF63
:1043D0000A20FFF710FF2E20FFF70DFF3020FFF718
:1043E0000AFF2520FFF707FF2A20FFF704FF2820F8
:1043F000FFF701FF2620FFF7FEFE2E20FFF7FBFE52
:104400003A20FFF7F8FE0020FFF7F5FE0120FFF746
:10441000F2FE0320FFF7EFFE1320FFF7ECFEE12092
:10442000FFF7DBFE0420FFF7E6FE1620FFF7E3FEB2
:104430000620FFF7E0FE0D20FFF7DDFE2D20FFF741
:10444000DAFE2620FFF7D7FE2320FFF7D4FE272031
:10445000FFF7D1FE2720FFF7CEFE2520FFF7CBFE8A
:104460002D20FFF7C8FE3B20FFF7C5FE0020FFF719
:10447000C2FE0120FFF7BFFE0420FFF7BCFE1320A1
:10448000FFF7B9FE2A20FFF7A8FE0020FFF7B3FED2
:10449000002009E000080140000C0140003001400C
:1044A000780000205C010020FFF7A5FE0020FFF748
:1044B000A2FE7F20FFF79FFE2B20FFF78EFE00203D
:1044C000FFF799FE0020FFF796FE0020FFF793FE0E
:1044D0009F20FFF790FE3A20FFF77FFE0520FFF7B1
:1044E0008AFE2920FFF779FE00950121A3886288C2
:1044F0000846FFF7B4FE01202070F8BD10B50C4649
:10450000FFF76BFE2046BDE8104054E6FC4910B1B1
:104510004815086070474FF00070FAE710B5144670
:104520000B460246FFF774FE2046BDE8104042E607
:104530002DE9FC5F9946164688460746FFF7EFFDD2
:104540000025A6EB070CA9EB0806681E2C46B94609
:10455000BCF1000F02DD4FF0010102E003D14FF08A
:104560000001009102E0CCF1000C0090002E02DD71
:104570004FF0010002E003D14FF00000834602E05B
:104580008346C6F10006B44501DD674600E03746C4
:10459000781C4FF0000A019015E01FFA88F11FFA0D
:1045A00089F00C9AFFF7BAFF65443444BD4202DD3E
:1045B0000099ED1B8944BC4201DDE41BD8440AF19B
:1045C00001001FFA80FA01998A45E6DDBDE8FC9FEB
:1045D0002DE9FF4F81B015460E460746FFF79FFDB8
:1045E00000240320A0EB450C55E0701B81B207EBC3
:1045F000040900901FFA89F0049AFFF78FFFA6EBD9
:10460000040B07EB05081FFA8BF11FFA88F0049AD8
:10461000FFF784FF06EB040A1FFA8AF11FFA88F0FD
:10462000049AFFF77BFF06EB05081FFA88F11FFAD3
:1046300089F0049AFFF772FFA7EB04091FFA88F1CB
:104640001FFA89F0049AFFF769FFA7EB05081FFA24
:104650008AF11FFA88F0049AFFF760FF0098049A25
:1046600081B21FFA89F0FFF759FF1FFA8BF11FFA89
:1046700088F0049AFFF752FF641CBCF1000F04DAC3
:104680000CEB840C0CF1060C05E0601B0CEB800CB1
:104690006D1E0CF10A0CAC42A7DD05B0BDE8F08F31
:1046A0002DE9F0471F46164688468246DDF82090E1
:1046B000FFF735FD0025AC461BE008EB070083B291
:1046C0000AEB060082B208EB0C0081B25046FFF7FD
:1046D0009FFD002407E009EB45000088FFF76BFD14
:1046E000641CA4B26D1CB442F5D30CF1010C1FFA8A
:1046F0008CFCBC45E1D3BDE8F0872DE9FF4F81B0CC
:1047000092468146FFF70BFD0E204FF0200B00264E
:1047100000907C4906EB06109AF8002011F8103042
:1047200093422CD101EB40089AF8010098F801104F
:10473000814224D10298284400F110018BB209F182
:1047400010018AB281B21FFA89F0FFF761FD0024DF
:1047500013E00025012708EB040CA7409CF8020099
:10476000384201D0049800E00E98FFF724FD6D1C3C
:10477000EDB2082DF2D3641CE4B25C45E9D3761C9B
:104780000098B6B28642C4D387E72DE9F84389463C
:10479000DDE9087605469846144611465AA002F00F
:1047A000E9FC0BE0102E0CD1434622464946284630
:1047B0000097FFF7A2FF1035ADB2A41C20780028A7
:1047C000F0D1AAE42DE9F05F9B4614468A46804664
:1047D000FFF7A5FC4D48002700EB441608F110092F
:1047E0004FF0010C0AEB070000F110018BB281B20F
:1047F0001FFA89F21FFA88F0FFF70AFD002500244E
:1048000030780CFA04F1084201D0584600E00A98CA
:10481000FFF7D1FC641CE4B2082CF1D36D1CEDB29F
:10482000761C022DEBD37F1CFFB2102FDAD3BDE82C
:10483000F09F2DE9F05F9B4614468A468046FFF7BD
:104840006EFC304808F12009801E00EBC4160027DA
:104850004FF0010C0AEB070000F120018BB281B28E
:104860001FFA89F21FFA88F0FFF7D2FC0025002416
:1048700030780CFA04F1084201D0584600E00A985A
:10488000FFF799FC641CE4B2082CF1D36D1CEDB267
:10489000761C042DEBD37F1CFFB2202FDAD3C6E7A2
:1048A0002DE9F84F1F4614460D468146FFF737FCA9
:1048B000DFF85CB09BF80000002863D0AA467807B8
:1048C00000D0012000EBD70079084843203CC0B25B
:1048D00004F0FF080026009051E00C2F1CD0102F90
:1048E0001ED0182F20D0202F4CD10A4901EB881060
:1048F0004FF0000C845D20061CD50A981BE00000D8
:10490000100C014076740008256300005276000800
:104910005C0100209291000808EB4800CF4906E0B6
:10492000CF4901EB0810E3E7CE4908EBC80001EBE3
:104930008000DDE70B98294682B24846FFF7EEFD7E
:104940006006040E6D1CBBF80400ADB2A84219D974
:10495000A5EB0A00B84209D109F10100BBF8021029
:104960001FFA80F9554649450CD906E00CF1010CB7
:104970000CF0FF0CBCF1080FBDD3761CF6B200980A
:104980008642AAD3BDE8F88F530700D0012303EB7A
:10499000D203534302784078DBB2812A05D3402802
:1049A00003D3FF2801D0FF2A08D10020024603E0EC
:1049B000401C01F8012BC0B29842F9D370472DE991
:1049C000F04FA1B01F468146DDF8ACB013460C464F
:1049D0008846780701D0012100E0002101EBD701D2
:1049E000794301F0FF0A3A4669461846FFF7CCFFC3
:1049F000FFF795FB4FF0000C23E01DF80C6000253D
:104A0000300602D52A9882B201E01FFA8BF22146C5
:104A10004846FFF783FD7006641C060EA4B2A4EBA3
:104A20000800B84205D109F1010044461FFA80F997
:104A300003E06D1CEDB2082DE2D30CF1010C0CF07B
:104A4000FF0CD445D9D321B028E62DE9FC5FDFF86F
:104A500018B20546DDE90C989BF800001C46164686
:104A60000F46002832D0AA460C2C2CD0102C2AD06D
:104A7000182C28D0202C26D0182424E0BBF80210B3
:104A8000091BA94202DA391955468FB2BBF8040056
:104A9000001BB8421ADB7F2A23460AD2CDE90098D0
:104AA00039462846FFF7FCFE05EB540085B2761C1C
:104AB00009E0CDE90098324639462846FFF77FFFE6
:104AC000281985B2B61C3278002AD7D17EE5F8B510
:104AD00000254FF607460F46044633462A46009502
:104AE000FFF770FE33460122394604F110000095AD
:104AF000FFF768FE33460222394604F12000009594
:104B0000FFF760FE33460322394604F1300000957A
:104B1000FFF758FE33461622394604F14600009549
:104B2000FFF750FE33461722394604F15600009530
:104B3000FFF748FE33460522394604F1660000952A
:104B4000FFF740FEF8BD2DE9FF5F00244FF6FF7828
:104B50000F460546434618220094FFF733FE05F141
:104B6000100043461922394600940390FFF72AFEAD
:104B700005F1200043461A22394600940290FFF7BF
:104B800021FE07F1140143460A2289462846009473
:104B9000FFF718FE43460B22494600940398FFF79F
:104BA00011FE43460C22494600940298FFF70AFE84
:104BB00005F1300043460D22494683460094FFF735
:104BC00001FE05F1420043461B22494682460094FD
:104BD000FFF7F8FD4FF47846CDE90064494605F14A
:104BE0005300102321A28146FFF72FFFCDE9006477
:104BF00007F1280110231EA20F462846FFF725FFC4
:104C000043461222394628460094FFF7DBFD43460F
:104C10001322394600940398FFF7D4FD434610222F
:104C2000394600940298FFF7CDFD434611223946DC
:104C300058460094FFF7C6FD43461B2239465046AE
:104C40000094FFF7BFFDCDE90064102309A23946A7
:104C50004846FFF7FAFEBDE8FF9F0000D279000842
:104C6000467E0008368400085C0100202A0000000F
:104C70006F7200002300000000F108014FF0FF32C6
:104C8000C0E90112C160016100210160704700218B
:104C90000161704742684A6093688B60936859600D
:104CA000916008610168491C0160704730B50C686B
:104CB000621C02D000F1080202E0026904E01A4618
:104CC00053681D68A542FAD953684B6099608A60A1
:104CD000516008610168491C016030BDD0E90132B2
:104CE00001699A60D0E901235A604A68824201D181
:104CF00082684A60002202610868401E08607047AE
:104D000070B50D46040005D140F21B12F7A1FEA0BC
:104D100002F030FA01F0D8FFD4E90F20216802FB3D
:104D2000001161600021A1632168A1600A46D4E9F5
:104D30000F01401E00FB0121E16021464FF0FF30D2
:104D400001F8440F487004F110004DB1FFF794FFD3
:104D500004F12400FFF790FF01F0D0FF012070BDA7
:104D600021690029F8D001F0C1F80028F4D0EA49FF
:104D70004FF080500860BFF34F8FBFF36F8FEBE7AA
:104D800070B50E46050005D14FF4C472D7A1DEA060
:104D900002F0F0F996B105FB06F0483001F03EFE56
:104DA000040009D004F1480120464EB10160C0E979
:104DB0000F560121FFF7A4FF204670BD0020ECE74D
:104DC0000060F4E72DE9F041044601F07DFF94F91D
:104DD000455004F1240609E0606A48B1304601F00C
:104DE00085F808B101F034F96D1E6DB2002DF3DCC9
:104DF0004FF0FF3684F8456001F080FF01F064FF5A
:104E000094F9445004F1100709E0206948B138468C
:104E100001F06CF808B101F01BF96D1E6DB2002DA8
:104E2000F3DC84F84460BDE8F04101F067BF2DE990
:104E3000F041856B164604460027026CFAB17EB13C
:104E4000E06801F0CBFFE168206C091AE16022689C
:104E5000914202D26168081AE060022E0DD00EE085
:104E6000A06801F0BBFF216CA0680844A0606168E5
:104E7000884204D32068A06001E005B16D1E6D1C5E
:104E8000A5633846BDE8F0812DE9FF4F83B01F468A
:104E90008B4604004FF0000605D140F2D92293A1C1
:104EA00099A002F067F9BBF1000F07D1206C28B17F
:104EB00040F2DA228DA194A002F05CF9022F08D111
:104EC000E06B012805D040F2DB2288A18EA002F021
:104ED00051F901F0C1F838B9059828B140F2DE2245
:104EE00082A189A002F046F94FF0000A4FF08058E5
:104EF000DFF8249201F0E8FEA06BE16B884205D355
:104F0000022F03D00598C8B1DEB11EE03A465946DB
:104F10002046FFF78CFF616A19B104F1240000F00C
:104F2000E5FF28B1C9F80080BFF34F8FBFF36F8F43
:104F300001F0E4FE012007B0BDE8F08F01F0DEFED5
:104F400021E0684601F040F8012601F0D7FE00F0AC
:104F5000C5FC01F0B9FE94F94400401C01D184F86D
:104F600044A094F94500401C01D184F845A001F00B
:104F7000C5FE05A9684601F038F830B12046FFF7B4
:104F800021FF00F01DFC0020D5E701F09DFEA06B85
:104F9000E16B884201D1012500E0002501F0AEFE61
:104FA00095B104F11000059900F047FF2046FFF786
:104FB00009FF00F005FC00289CD1C9F80080BFF370
:104FC0004F8FBFF36F8F95E72046FFF7FBFE00F092
:104FD000F7FB8FE72DE9F0471F469046894604000E
:104FE00005D140F29F3241A147A002F0C3F8B9F1C8
:104FF000000F07D1206C28B14FF468723BA142A08A
:1050000002F0B8F8022F08D1E06B012805D040F279
:10501000A13236A13CA002F0ADF801F094FE402090
:10502000EFF3118680F31188BFF34F8FBFF36F8FBB
:10503000A06BE16B884206D3022F04D0002086F3D8
:105040001188BDE8F08794F945503A464946204614
:10505000FFF7EDFE681C04D06D1C84F8455001205C
:10506000EDE7606A0028FAD004F1240000F03EFF6A
:105070000028F4D0B8F1000FF1D00121C8F80010D9
:10508000EDE770B50E46040005D140F23C4217A191
:105090001DA002F06FF8206C28B14FF4886213A1B4
:1050A00019A002F067F8206838B9606828B140F2AA
:1050B00045420EA114A002F05DF801F044FE40202C
:1050C000EFF3118580F31188BFF34F8FBFF36F8F1C
:1050D000A16BE06B884231D994F94500491CA1636A
:1050E000411C1DD0401C84F8450017E02E2E5C2E7C
:1050F0002E5C4672656552544F535C7372635C71EB
:10510000756575652E6300004572726F723A25737E
:105110002C25640D0A00000004ED00E001200EE0E3
:10512000606A0028E1D004F1240000F0DFFE0028CE
:10513000DBD0002ED9D001203060D6E7002085F3E7
:10514000118870BD30B4026C0B46002A0BD0C168C8
:105150001144C1604468A14201D30168C16030BC00
:10516000184601F03BBE30BC70472DE9FF4F83B0BD
:105170009B468A4604004FF0000607D140F2DC420D
:10518000AFF29801AFF2800001F0F4FFBAF1000F26
:1051900009D1206C38B140F2DD42AFF2B001AFF27C
:1051A000980001F0E7FF00F057FF48B9059838B1C3
:1051B0004FF49C62AFF2CC01AFF2B40001F0DAFF21
:1051C0004FF000094FF08057DFF8848301F07CFD39
:1051D000A56B0DB351462046E668FFF7B3FFBBF160
:1051E000000F11D0E660606A50B104F1240000F0B5
:1051F0007DFE28B1C8F80070BFF34F8FBFF36F8FEB
:1052000001F07CFD012096E66D1EA5632069002853
:10521000F6D004F11000EAE7059808B11EB106E0E7
:1052200001F06CFD27E0684600F0CEFE012601F09B
:1052300065FD00F053FB01F047FD94F94400401C6C
:1052400001D184F8449094F94500401C01D184F8C0
:10525000459001F053FD05A9684600F0C6FE002800
:1052600020460AD0FFF7AEFD00F0AAFA204600F073
:1052700062F90028AAD000205DE600F05CF990B148
:1052800004F12400059900F0D8FD2046FFF79AFDAF
:1052900000F096FA002899D1C8F80070BFF34F8F3C
:1052A000BFF36F8F92E72046FFF78CFD00F088FA7E
:1052B0008CE72DE9F04790468946040007D14FF46A
:1052C000B462AFF2D811AFF2C01001F053FFB9F1E0
:1052D000000F09D1206C38B140F2A152AFF2F411A5
:1052E000AFF2DC1001F046FF01F02DFD4020EFF39E
:1052F000118780F31188BFF34F8FBFF36F8FA66BB9
:10530000F6B194F9445049462046FFF71BFF761E3C
:10531000A663681C04D06D1C84F84450012010E082
:1053200020690028FAD004F1100000F0DFFD002809
:10533000F4D0B8F1000FF1D00121C8F80010EDE76A
:10534000002087F311887CE62DE9F0410E46040029
:1053500007D140F2FC52AFF26C21AFF2542001F0C1
:1053600009FF4EB9206C48B140F2FD52AFF28421E2
:10537000AFF26C2001F0FEFE206C38B940F2FE5214
:10538000AFF29821AFF2802001F0F4FE01F0DBFCD7
:105390004020EFF3118580F31188BFF34F8FBFF3E7
:1053A0006F8FA06B30B131462046E768FFF7CAFE29
:1053B0000120E76085F3118864E510B5040007D18A
:1053C00040F22F62AFF2DC21AFF2C42001F0D2FE36
:1053D00001F07AFCA46B01F091FC204610BD10B5E1
:1053E000040007D140F24162AFF20031AFF2E82091
:1053F00001F0C0FE01F068FCD4E90E10441A01F07F
:105400007DFC204610BD10B5040007D140F251626A
:10541000AFF22831AFF2103001F0ACFEA06B10BD3E
:105420004C4A002102EBC1035B68834206D1002095
:1054300042F8310002EBC10148607047491C0A295B
:10544000F0D3704710B5040007D140F25D62AFF2AF
:105450006431AFF24C3001F08DFE2046FFF7E0FFE3
:105460002046BDE8104001F044BB10B5040007D150
:1054700040F29372AFF28C31AFF2743001F07AFEE9
:10548000A06B08B1002010BD012010BD10B50400B4
:1054900007D140F2BA72AFF2AC31AFF2943001F002
:1054A00069FEA06BE16B884201D1012010BD002094
:1054B00010BD10B5274B002253F832401CB1521CCE
:1054C0000A2AF9D310BD43F8321003EBC201486039
:1054D00010BD10B500241F4A214602EBC1035B68D2
:1054E000834202D152F8314002E0491C0A29F4D328
:1054F000204610BD70B515460E46044601F0E4FB8B
:1055000094F944100020491C01D184F8440094F916
:105510004510491C01D184F8450001F0EFFBA06B58
:1055200028B92A46314604F1240000F0C4FC204684
:10553000BDE8704046E410B5044601F0C5FBA06B21
:1055400020B1002401F0DAFB204610BD0124F9E768
:1055500004ED00E0680100202DE9F041054601F06E
:10556000B3FBFE4EB068401CB0603068FC4F10B119
:10557000706930B32BE03560B068012827D1002472
:1055800004EB840007EB8000FFF776FB641C202C03
:10559000F6D3F448FFF770FBF2481430FFF76CFBCA
:1055A000F0482830FFF768FBEE483C30FFF764FB1B
:1055B000EC485030FFF760FBEA4870631430B0638A
:1055C00005E03068E96AC06A884200D83560706AD0
:1055D0000121401C7062E86A3269814011433161E7
:1055E00000EB800007EB8000291DFFF753FB01F063
:1055F00085FB706900280CD03068E96AC06A88426F
:1056000007D2D9494FF080500860BFF34F8FBFF3E6
:105610006F8FBDE8F0812DE9FF5F8346DDE90E87DE
:10562000994616468A46900001F0F8F905001AD00E
:105630004C2001F0F3F9040012D025630021CDE9DC
:105640000241CDE900874B4632465146584600F0AC
:10565000CCFE2046FFF780FF012004B0BDE8F09F9C
:10566000284601F046FA4FF0FF30F6E770B50446E1
:1056700001F02AFBB94D04B92C68201DFFF72EFB61
:1056800058B9E06AB64A00EB800152F8211021B9FE
:1056900001218140286988432861A06A18B104F17A
:1056A0001800FFF71BFB686A401C68622868844288
:1056B00008D1AC48211D3C30FFF7ECFA6868401C6B
:1056C000686007E0A868401EA860204600F0DEFE83
:1056D00000F0CFFE01F012FB6869002812D02868A4
:1056E00084420FD1286B28B140F265429FA1A6A049
:1056F00001F040FD9C494FF080500860BFF34F8F90
:10570000BFF36F8F70BD2DE9F041944F0026386BC9
:1057100038B1B869401CB861F86900B1012630465B
:1057200077E7FD686D1CFD6011D1786B006828B1CA
:1057300040F6D9128DA194A001F01CFD786BB96BD5
:105740007963B863386A401C386200F092FEB86A28
:10575000DFF80C82854209D3786B006880B1786BE2
:10576000C068C468606885420DD2B8623868C06A93
:1057700000EB800158F821000128CDD90126CBE7A4
:105780004FF0FF30F1E7201DFFF7A8FAA06A18B12B
:1057900004F11800FFF7A2FAE06A01213A6981409A
:1057A0001143396100EB800108EB8100211DFFF7F7
:1057B00071FAE06A3968C96A8842CDD30126CBE71D
:1057C0002DE9F047654D00242746286B28B94FF492
:1057D000FD6266A16CA001F0CDFC01F075FA286BAA
:1057E000401E2863286BE0BBA8685E49283101266B
:1057F000B8B3DFF86C918846D8F80010E9B1D8F852
:105800000C00C46804F11800FFF768FA201DFFF7C8
:1058100065FAE06A2A6906FA00F11143296100EB92
:10582000800109EB8100211DFFF734FAE06A296845
:10583000C96A8842E0D3EE61DEE70CB100F019FEE0
:10584000AC693CB1FFF75FFF00B1EE61641EF9D1B6
:105850000020A861E86920B14349012738070860A2
:1058600000E003E0BFF34F8FBFF36F8F01F046FA04
:105870003846BDE8F0872DE9F041384E0F46044622
:10588000F5683068001DFFF729FA38B9306890F8DC
:105890002C1001208840316981433161601C08D19E
:1058A0003FB13168BDE8F0412E485030091DFFF787
:1058B000F1B930682C44AC424460316805D2B06B19
:1058C000BDE8F041091DFFF7F1B9706B091DFFF745
:1058D000EDF9B06A844200D2B4629AE61F48016BC7
:1058E000491C016370472DE9F0410E4605004FF059
:1058F000000405D140F279421CA123A001F03AFC3A
:105900002EB940F27A4219A11FA001F033FC134FC7
:10591000386B28B140F27B4214A11BA001F02AFC95
:10592000FFF7DCFFFA6828688119904202D98842A3
:1059300002D804E0884201D8914200D901242960AC
:105940001CB1881A0021FFF796FFFFF739FF0028E6
:1059500026D105494FF0805008601DE07C000020F2
:10596000B80100203804002004ED00E02E2E5C2E4B
:105970002E5C4672656552544F535C7372635C745F
:1059800061736B732E6300004572726F723A2573F8
:105990002C25640D0A000000BFF34F8FBFF36F8FFB
:1059A00037E610B5040014D0FE49096B39B140F256
:1059B000CF42AFF24801AFF2300001F0DBFBFFF75E
:1059C0008DFF00212046FFF756FFFFF7F9FE002864
:1059D00007D1F5494FF080500860BFF34F8FBFF3F8
:1059E0006F8F10BD70B5050007D140F2FB42AFF2DA
:1059F0008401AFF26C0001F0BDFBEA4E30688542D5
:105A000001D1002070BD01F05FF96C6901F076F9F9
:105A1000706B844202D0B06B844201D1022070BD11
:105A2000E248844204D1A86A0028F7D1032070BD5F
:105A3000DE481438844202D00CB1012070BD04202D
:105A400070BD10B5044601F03FF90CB9D5480468A3
:105A5000E46A01F053F9204610BD10B5044601F088
:105A600072F94020EFF3118180F31188BFF34F8F5B
:105A7000BFF36F8F0CB9CB480468E06A81F31188DB
:105A800010BD2DE9F04100260D460446202908D31B
:105A90004FF4B062AFF22C11AFF2141001F06AFBB8
:105AA0001F2501F011F9BF4F04B93C68E06AA84214
:105AB0003BD03968854206D98C4207D03968C96A1B
:105AC000A94202D902E08C4200D101268046E5625B
:105AD000A069002802DBC5F12000A061B44D08EBED
